:020000040000FA
:100000000C945E000C947B000C947B000C947B00A1
:100010000C947B000C947B000C947B000C947B0074
:100020000C947B000C947B000C947B000C947B0064
:100030000C947B000C947B000C947B000C947B0054
:100040000C941C010C947B000C947B000C947B00A2
:100050000C947B000C947B000C947B000C947B0034
:100060000C947B000C947B0000000000240027000F
:100070002A0000000000250028002B0004040404CE
:100080000404040402020202020203030303030342
:10009000020102040810204080010204081020011F
:1000A0000204081020800000000800020100000384
:1000B00004070000000000000000000011241FBE23
:1000C000CFEFD8E0DEBFCDBF11E0A0E0B1E0E4E2C9
:1000D000F4E002C005900D92AA30B107D9F721E0F3
:1000E000AAE0B1E001C01D92A331B207E1F70E947E
:1000F00066010C9410020C940000E3EBF0E02491F4
:10010000EEE9F0E09491E9E8F0E0E491EE23C9F043
:10011000222339F0233001F1A8F4213019F12230E3
:1001200029F1F0E0EE0FFF1FEE58FF4FA591B491BB
:100130002FB7F894EC91811126C090959E239C9343
:100140002FBF08952730A9F02830C9F0243049F78F
:10015000209180002F7D03C0209180002F77209375
:100160008000DFCF24B52F7724BDDBCF24B52F7DD2
:10017000FBCF2091B0002F772093B000D2CF2091F9
:10018000B0002F7DF9CF9E2BDACF3FB7F894809146
:100190000F0190911001A0911101B091120126B5AB
:1001A000A89B05C02F3F19F00196A11DB11D3FBFAF
:1001B000BA2FA92F982F8827BC01CD01620F711D7E
:1001C000811D911D42E0660F771F881F991F4A9578
:1001D000D1F708958F929F92AF92BF92CF92DF9204
:1001E000EF92FF924B015C010E94C5006B017C0104
:1001F0000E94C5006C197D098E099F09683E7340F5
:1002000081059105A8F321E0821A9108A108B1089F
:1002100088EEC80E83E0D81EE11CF11C8114910405
:10022000A104B10429F7FF90EF90DF90CF90BF9029
:10023000AF909F908F9008951F920F920FB60F92DC
:1002400011242F933F938F939F93AF93BF938091EC
:100250000B0190910C01A0910D01B0910E01309114
:100260000A0123E0230F2D3758F50196A11DB11D7A
:1002700020930A0180930B0190930C01A0930D0130
:10028000B0930E0180910F0190911001A091110186
:10029000B09112010196A11DB11D80930F019093A1
:1002A0001001A0931101B0931201BF91AF919F91E2
:1002B0008F913F912F910F900FBE0F901F90189527
:1002C00026E8230F0296A11DB11DD2CF789484B5E4
:1002D000826084BD84B5816084BD85B5826085BD42
:1002E00085B5816085BD80916E00816080936E00D0
:1002F00010928100809181008260809381008091C2
:100300008100816080938100809180008160809372
:1003100080008091B10084608093B1008091B00032
:1003200081608093B00080917A00846080937A002D
:1003300080917A00826080937A0080917A00816057
:1003400080937A0080917A00806880937A0010927E
:10035000C100EEE9F0E02491E9E8F0E0849188231F
:1003600099F090E0880F991FFC01E859FF4FA59183
:10037000B491FC01EE58FF4F859194918FB7F8949A
:10038000EC91E22BEC938FBF00E010E0E0E0F1E0B5
:10039000D0E0C0E0808132968E3008F08E508770B9
:1003A000806480937C0080917A00806480937A00DE
:1003B00080917A0086FDFCCF809178009091790041
:1003C000853F91400CF0219681E0EA30F80711F763
:1003D000F12CE12CEC16FD06B1F081E00E947D00CD
:1003E00068EC70E080E090E00E94EA0080E00E940B
:1003F0007D0068EC70E080E090E00E94EA002FEF62
:10040000E21AF20AE7CF64EF71E080E090E00E9428
:10041000EA000115110509F4B9CF0E940000B6CF1A
:0E042000F894FFCF0E000F0010001100120024
:107E00001F92CDB7DEB7112484B714BE982F9D7092
:107E100009F0D7D085E08093810082E08093C00094
:107E200088E18093C10086E08093C20082E2809363
:107E3000C4008EE0B1D0259A26E080E39CEF31E0CB
:107E4000909385008093840036BBB09BFECF1D9A33
:107E5000A8952150A9F7812C912C93E0F92EEE24BE
:107E6000E39425E0D22E31E1C32E8AD0813479F417
:107E700087D0898397D08981823811F482E005C048
:107E8000813811F486E001C083E073D06FC0823482
:107E900011F484E103C0853419F485E08BD066C009
:107EA000853541F46DD0882E6BD0912C982A880CA2
:107EB000991C5BC0863521F484E07CD080E0E5CF5E
:107EC000843609F036C05CD05BD0B82E59D0A82ECD
:107ED00000E011E055D0F80181938F01BE12FACF76
:107EE00061D0F5E4AF1201C0FFCFF401F7BEE89511
:107EF00007B600FCFDCFB401A0E0B1E02C911296D2
:107F0000AD0141505109FA01808130E0382BFB016D
:107F10000901E7BEE89511246E5F7F4FBA12EECFDC
:107F2000F401D7BEE89507B600FCFDCFC7BEE895C3
:107F30001DC0843769F424D023D0B82E21D032D08C
:107F40008401F80185918F0114D0BA94D1F70EC045
:107F5000853739F427D08EE10CD085E90AD08FE03F
:107F600094CF813511F488E017D01CD080E101D086
:107F70007CCF9091C00095FFFCCF8093C600089500
:107F80008091C00087FFFCCF8091C00084FD01C0BC
:107F9000A8958091C6000895E0E6F0E098E190830E
:107FA00080830895EDDF803219F088E0F5DFFFCFA0
:107FB00084E1DFCFCF93C82FE3DFC150E9F7CF9142
:0E7FC000F1CF282E80E0E8DFE0E0FF270994F3
:027FFE00020679
:00000001FF
