:020000040000FA
:100000000C945E000C947B000C947B000C947B00A1
:100010000C947B000C947B000C947B000C947B0074
:100020000C947B000C947B000C947B000C947B0064
:100030000C947B000C947B000C947B000C947B0054
:100040000C94C9010C947B000C947B000C947B00F5
:100050000C947B000C947B000C947B000C947B0034
:100060000C947B000C947B0000000008000201004F
:100070000003040700000000000000000000000072
:1000800000250028002B0000000000240027002A83
:100090000004040404040404040202020202020331
:1000A000030303030302010204081020408001023D
:1000B00004081020010204081020800011241FBE33
:1000C000CFEFD8E0DEBFCDBF11E0A0E0B1E0E4EBC0
:1000D000FAE002C005900D92A431B107D9F721E0F2
:1000E000A4E1B1E001C01D92A532B207E1F70E9480
:1000F00013020C9458050C94000090E0FC01EA55A2
:10010000FF4F24918F569F4FFC018491882399F0D3
:1001100090E0880F991FFC01E957FF4FA591B4911A
:10012000FC01E358FF4F859194918FB7F894EC91BF
:10013000E22BEC938FBF089590E0FC01E859FF4F4C
:100140002491FC01EA55FF4F3491FC01EF56FF4F1B
:10015000E491EE23C9F0222339F0233001F1A8F411
:10016000213019F1223029F1F0E0EE0FFF1FE358A2
:10017000FF4FA591B4918FB7F894EC91611126C00F
:1001800030953E233C938FBF08952730A9F0283047
:10019000C9F0243049F7809180008F7D03C08091A1
:1001A00080008F7780938000DFCF84B58F7784BD08
:1001B000DBCF84B58F7DFBCF8091B0008F778093AC
:1001C000B000D2CF8091B0008F7DF9CF3E2BDACF37
:1001D0001F93CF93DF93182FEB010E947D00209790
:1001E00039F460E0812FDF91CF911F910C949C0036
:1001F000CF3FD10511F461E0F5CFE12FF0E0E859F0
:10020000FF4FE491E33031F140F4E130B1F0E230FE
:10021000E1F0C038D1057CF7E4CFE73029F1E830D0
:1002200059F1E430B1F780918000806280938000C2
:10023000D0938B00C0938A0004C084B5806884BDCD
:10024000C7BDDF91CF911F91089584B5806284BDB1
:10025000C8BDF7CF80918000806880938000D093E4
:100260008900C0938800EDCF8091B00080688093B2
:10027000B000C093B300E5CF8091B000806280935E
:10028000B000C093B400DDCF3FB7F8948091210156
:1002900090912201A0912301B091240126B5A89B41
:1002A00005C02F3F19F00196A11DB11D3FBFBA2F08
:1002B000A92F982F8827BC01CD01620F711D811DC8
:1002C000911D42E0660F771F881F991F4A95D1F74D
:1002D00008950F931F93CF93DF9381302FEF9207F1
:1002E0000CF44CC08C018F3F910519F014F00FEF06
:1002F00010E0C1E0DFEF61308FEF78073CF0EB01F9
:100300006F3F710519F014F0CFEFD0E017FD1EC05C
:1003100061E08AE00E949C0060E08BE00E949C000B
:10032000D7FD20C061E088E00E949C0060E089E089
:100330000E949C00B80186E00E94E800BE0185E0B2
:10034000DF91CF911F910F910C94E80060E08AE05B
:100350000E949C0061E08BE00E949C001195019539
:100360001109DECF60E088E00E949C0061E089E036
:100370000E949C00D195C195D109DCCFC1E0DFEF8F
:1003800001E01FEF61302FEF720704F301E01FEF70
:10039000B6CF1F920F920FB60F9211242F933F9357
:1003A0008F939F93AF93BF9380911D0190911E01F6
:1003B000A0911F01B091200130911C0123E0230F77
:1003C0002D3758F50196A11DB11D20931C01809376
:1003D0001D0190931E01A0931F01B09320018091F5
:1003E000210190912201A0912301B0912401019655
:1003F000A11DB11D8093210190932201A09323019F
:10040000B0932401BF91AF919F918F913F912F9114
:100410000F900FBE0F901F90189526E8230F02969D
:10042000A11DB11DD2CFCF93DF93CDB7DEB72E97ED
:100430000FB6F894DEBF0FBECDBF789484B582604E
:1004400084BD84B5816084BD85B5826085BD85B578
:10045000816085BD80916E00816080936E001092F6
:100460008100809181008260809381008091810071
:100470008160809381008091800081608093800002
:100480008091B10084608093B1008091B000816060
:100490008093B00080917A00846080937A0080918C
:1004A0007A00826080937A0080917A0081608093E4
:1004B0007A0080917A00806880937A001092C1005F
:1004C00088E00E947D0089E00E947D008AE00E9411
:1004D0007D008BE00E947D0085E00E947D0086E02B
:1004E0000E947D000E9444014B015C0198EBC92EE3
:1004F0009BE0D92EE12CF12C0E9444016819790966
:100500008A099B09683E734081059105A8F321E0A3
:10051000C21AD108E108F10868EE860E63E0961E63
:10052000A11CB11CC114D104E104F10429F7222457
:100530002394312C0FEF1FEF8AE0E0E0F1E0DE01C1
:10054000119601900D928A95E1F7EAE0F1E0AE0193
:100550004F5F5F4F30E020E0C12CD12C76018081CD
:1005600032968E3008F08E508770806480937C00C5
:1005700080917A00806480937A0080917A0086FD71
:10058000FCCF8091780090917900853F91406CF08C
:10059000DA018D919C91092E000CAA0BBB0BC80EA1
:1005A000D91EEA1EFB1E2F5F3F4F4E5F5F4FB1E02B
:1005B000E431FB07A1F621153105A9F0032E000C4B
:1005C000440B550BC701B6010E94170529013A01DA
:1005D00077FE1DC0109315010093140120E142160F
:1005E00027E2520619F580911401909115010196A8
:1005F000C1F460E570E080EB9FEF0E94690180E04C
:1006000090E0892B09F498CF0E94000095CF411407
:1006100051046104710411F3309215012092140108
:10062000DDCF60EB7FEF80E590E0E7CFB201052CF6
:10063000000C880B990B0E941E044B015C01209159
:1006400018013091190140911A0150911B010E942B
:100650007A036B017C01C0921801D0921901E092DB
:100660001A01F0921B018091160190911701B201BD
:10067000681B790B072E000C880B990B0E941E0437
:100680002DEC3CEC4CE45FE30E94AA046B877C8772
:100690008D879E872AE939E949E15EE3C501B40106
:1006A0000E94AA044B015C012FE632E143E85AE3C1
:1006B000C701B6010E94AA049B01AC01C501B401A7
:1006C0000E947A039B01AC016B857C858D859E859C
:1006D0000E947A030E94E60350921701409216018D
:1006E00026E930E0261B370BCB018A569F4FB90114
:1006F00084CF5058BB27AA270E9491030C94700402
:100700000E94620438F00E94690420F039F49F3F8F
:1007100019F426F40C945F040EF4E095E7FB0C94B6
:100720005904E92F0E94810458F3BA17620773072E
:100730008407950720F079F4A6F50C94A3040EF431
:10074000E0950B2EBA2FA02D0B01B90190010C01E1
:10075000CA01A0011124FF27591B99F0593F50F4F9
:10076000503E68F11A16F040A22F232F342F442751
:10077000585FF3CF469537952795A795F040539549
:10078000C9F77EF41F16BA0B620B730B840BBAF019
:100790009150A1F0FF0FBB1F661F771F881FC2F784
:1007A0000EC0BA0F621F731F841F48F48795779598
:1007B0006795B795F7959E3F08F0B0CF9395880F52
:1007C00008F09927EE0F9795879508950E94ED03FD
:1007D0006894B1110C94A40408950E94890488F0CF
:1007E0009F5798F0B92F9927B751B0F0E1F0660FF5
:1007F000771F881F991F1AF0BA95C9F714C0B13036
:1008000091F00E94A304B1E008950C94A304672F13
:10081000782F8827B85F39F0B93FCCF38695779564
:100820006795B395D9F73EF490958095709561954D
:100830007F4F8F4F9F4F0895E89409C097FB3EF478
:1008400090958095709561957F4F8F4F9F4F99231D
:10085000A9F0F92F96E9BB279395F695879577959B
:100860006795B795F111F8CFFAF4BB0F11F460FF5B
:100870001BC06F5F7F4F8F4F9F4F16C0882311F0B3
:1008800096E911C0772321F09EE8872F762F05C0C7
:10089000662371F096E8862F70E060E02AF09A9562
:1008A000660F771F881FDAF7880F9695879597F957
:1008B000089597F99F6780E870E060E008959FEFE2
:1008C00080EC089500240A941616170618060906E7
:1008D000089500240A9412161306140605060895B6
:1008E000092E0394000C11F4882352F0BB0F40F43E
:1008F000BF2B11F460FF04C06F5F7F4F8F4F9F4F7E
:10090000089557FD9058440F551F59F05F3F71F0FF
:100910004795880F97FB991F61F09F3F79F0879566
:100920000895121613061406551FF2CF4695F1DFEF
:1009300008C0161617061806991FF1CF869571057F
:10094000610508940895E894BB2766277727CB01B3
:1009500097F908950E94BD040C9470040E946204EB
:1009600038F00E94690420F0952311F00C9459048A
:100970000C945F0411240C94A4040E94810470F36D
:10098000959FC1F3950F50E0551F629FF001729F34
:10099000BB27F00DB11D639FAA27F00DB11DAA1F43
:1009A000649F6627B00DA11D661F829F2227B00D90
:1009B000A11D621F739FB00DA11D621F839FA00D1B
:1009C000611D221F749F3327A00D611D231F849F6B
:1009D000600D211D822F762F6A2F11249F575040C2
:1009E0009AF0F1F088234AF0EE0FFF1FBB1F661F3D
:1009F000771F881F91505040A9F79E3F510580F006
:100A00000C9459040C94A4045F3FE4F3983ED4F38F
:100A1000869577956795B795F795E7959F5FC1F7A9
:100A2000FE2B880F911D9695879597F90895052EB1
:100A300097FB1EF400940E942E0557FD07D00E94DC
:100A4000360507FC03D04EF40C942E0550954095C6
:100A5000309521953F4F4F4F5F4F0895909580956A
:100A6000709561957F4F8F4F9F4F0895A1E21A2E89
:100A7000AA1BBB1BFD010DC0AA1FBB1FEE1FFF1F42
:100A8000A217B307E407F50720F0A21BB30BE40B92
:100A9000F50B661F771F881F991F1A9469F76095D9
:100AA0007095809590959B01AC01BD01CF01089593
:100AB000F894FFCF30F818FC0000E803D0070E00D0
:080AC0000F00100011001200EC
:107E00001F92CDB7DEB7112484B714BE982F9D7092
:107E100009F0D7D085E08093810082E08093C00094
:107E200088E18093C10086E08093C20082E2809363
:107E3000C4008EE0B1D0259A26E080E39CEF31E0CB
:107E4000909385008093840036BBB09BFECF1D9A33
:107E5000A8952150A9F7812C912C93E0F92EEE24BE
:107E6000E39425E0D22E31E1C32E8AD0813479F417
:107E700087D0898397D08981823811F482E005C048
:107E8000813811F486E001C083E073D06FC0823482
:107E900011F484E103C0853419F485E08BD066C009
:107EA000853541F46DD0882E6BD0912C982A880CA2
:107EB000991C5BC0863521F484E07CD080E0E5CF5E
:107EC000843609F036C05CD05BD0B82E59D0A82ECD
:107ED00000E011E055D0F80181938F01BE12FACF76
:107EE00061D0F5E4AF1201C0FFCFF401F7BEE89511
:107EF00007B600FCFDCFB401A0E0B1E02C911296D2
:107F0000AD0141505109FA01808130E0382BFB016D
:107F10000901E7BEE89511246E5F7F4FBA12EECFDC
:107F2000F401D7BEE89507B600FCFDCFC7BEE895C3
:107F30001DC0843769F424D023D0B82E21D032D08C
:107F40008401F80185918F0114D0BA94D1F70EC045
:107F5000853739F427D08EE10CD085E90AD08FE03F
:107F600094CF813511F488E017D01CD080E101D086
:107F70007CCF9091C00095FFFCCF8093C600089500
:107F80008091C00087FFFCCF8091C00084FD01C0BC
:107F9000A8958091C6000895E0E6F0E098E190830E
:107FA00080830895EDDF803219F088E0F5DFFFCFA0
:107FB00084E1DFCFCF93C82FE3DFC150E9F7CF9142
:0E7FC000F1CF282E80E0E8DFE0E0FF270994F3
:027FFE00020679
:00000001FF
