:020000040000FA
:100000000C9463000C9475000C9475000C947500AE
:100010000C9475000C9475000C9475000C9475008C
:100020000C9475000C9475000C9475000C9475007C
:100030000C9475000C9475000C9475000C9475006C
:100040000C94CC010C9475000C9475000C94750004
:100050000C9475000C9475000C9475000C9475004C
:100060000C9475000C94750000000000240027001B
:100070002A0000000000250028002B0000000000DE
:1000800023002600290004040404040404040202DA
:100090000202020203030303030302010204081025
:1000A0002040800102040810200102040810208072
:1000B0000000000800020100000304070000000027
:1000C00000000000000011241FBECFEFD8E0DEBF0B
:1000D000CDBF21E0A0E0B1E001C01D92A930B20780
:1000E000E1F70E9416020C94E6020C9400008330A3
:1000F00081F028F4813099F08230A9F0089587309A
:10010000A9F08830C9F08430B1F4809180008F7DEF
:1001100003C0809180008F7780938000089584B51C
:100120008F7784BD089584B58F7DFBCF8091B0001B
:100130008F778093B00008958091B0008F7DF9CFC4
:10014000CF93DF93282F30E0F901E055FF4F8491E2
:10015000F901E556FF4FD491F901EA57FF4FC491D9
:10016000CC23A1F081110E947700EC2FF0E0EE0F7C
:10017000FF1FE458FF4FA591B491EC91ED2381E06E
:1001800090E009F480E0DF91CF91089580E090E065
:10019000FACF1F93CF93DF93282F30E0F901E0557A
:1001A000FF4F8491F901E556FF4FD491F901EA57C9
:1001B000FF4FC491CC23A9F0162F81110E94770024
:1001C000EC2FF0E0EE0FFF1FEE58FF4FA591B4911A
:1001D0008FB7F894EC91111108C0D095DE23DC9311
:1001E0008FBFDF91CF911F910895DE2BF8CFCF9372
:1001F000DF9390E0FC01E556FF4F24918A579F4F13
:10020000FC0184918823D1F090E0880F991FFC01B4
:10021000E859FF4FA591B491FC01EE58FF4FC591ED
:10022000D49161110EC09FB7F8948C91E22FE095A4
:100230008E238C932881E223E8839FBFDF91CF91A7
:1002400008958FB7F894EC91E22BEC938FBFF6CF23
:100250001F93CF93DF93182FEB0161E00E94F7000B
:10026000209739F460E0812FDF91CF911F910C949A
:10027000C900CF3FD10511F461E0F5CFE12FF0E0E7
:10028000E055FF4FE491E33031F140F4E130B1F05B
:10029000E230E1F0C038D1057CF7E4CFE73029F156
:1002A000E83059F1E430B1F78091800080628093AA
:1002B0008000D0938B00C0938A0004C084B580680E
:1002C00084BDC7BDDF91CF911F91089584B5806231
:1002D00084BDC8BDF7CF8091800080688093800086
:1002E000D0938900C0938800EDCF8091B0008068E2
:1002F0008093B000C093B300E5CF8091B0008062DE
:100300008093B000C093B400DDCF3FB7F8948091E4
:10031000050190910601A0910701B091080126B551
:10032000A89B05C02F3F19F00196A11DB11D3FBF2D
:10033000BA2FA92F982F8827BC01CD01620F711DFC
:10034000811D911D42E0660F771F881F991F4A95F6
:10035000D1F708950F931F93CF93DF938C01EB0197
:1003600061E088E00E94C90060E089E00E94C90065
:1003700061E08AE00E94C90060E08BE00E94C90051
:10038000B80186E00E942801BE0185E0DF91CF918F
:100390001F910F910C9428011F920F920FB60F928C
:1003A00011242F933F938F939F93AF93BF9380918B
:1003B000010190910201A0910301B09104013091DB
:1003C000000123E0230F2D3758F50196A11DB11D23
:1003D000209300018093010190930201A0930301F7
:1003E000B09304018091050190910601A09107014D
:1003F000B09108010196A11DB11D80930501909354
:100400000601A0930701B0930801BF91AF919F919E
:100410008F913F912F910F900FBE0F901F901895C5
:1004200026E8230F0296A11DB11DD2CF789484B582
:10043000826084BD84B5816084BD85B5826085BDE0
:1004400085B5816085BD80916E00816080936E006E
:100450001092810080918100826080938100809160
:100460008100816080938100809180008160809311
:1004700080008091B10084608093B1008091B000D1
:1004800081608093B00080917A00846080937A00CC
:1004900080917A00826080937A0080917A008160F6
:1004A00080937A0080917A00806880937A0010921D
:1004B000C10061E088E00E94F70061E089E00E94ED
:1004C000F70061E08AE00E94F70061E08BE00E94A3
:1004D000F70061E085E00E94F70061E086E00E949D
:1004E000F70060E08EE00E94F70060E08FE00E947D
:1004F000F70060E080E10E94F70060E081E10E9487
:10050000F70060E082E10E94F7000E9485014B0144
:100510005C0188E8C82E83E1D82EE12CF12C0E94E2
:100520008501681979098A099B09683E734081052C
:100530009105A8F321E0C21AD108E108F10888EE7C
:10054000880E83E0981EA11CB11CC114D104E104E3
:10055000F10429F7C0E0D0E08EE00E94A0007C0109
:100560008FE00E94A0005C0180E10E94A0004C018D
:1005700081E10E94A0006C0182E10E94A00064EB76
:1005800070E08A948928E1F0AA94AB2859F464EBCE
:1005900070E084E690E00E94AA012097E9F20E94B0
:1005A0000000DACF64E670E0CA94CD2849F064EB2D
:1005B00070E0EA94EF2839F070E060E0019719F4F8
:1005C00084EB90E0E8CF90E080E0E5CFF894FFCFB7
:107E00001F92CDB7DEB7112484B714BE982F9D7092
:107E100009F0D7D085E08093810082E08093C00094
:107E200088E18093C10086E08093C20082E2809363
:107E3000C4008EE0B1D0259A26E080E39CEF31E0CB
:107E4000909385008093840036BBB09BFECF1D9A33
:107E5000A8952150A9F7812C912C93E0F92EEE24BE
:107E6000E39425E0D22E31E1C32E8AD0813479F417
:107E700087D0898397D08981823811F482E005C048
:107E8000813811F486E001C083E073D06FC0823482
:107E900011F484E103C0853419F485E08BD066C009
:107EA000853541F46DD0882E6BD0912C982A880CA2
:107EB000991C5BC0863521F484E07CD080E0E5CF5E
:107EC000843609F036C05CD05BD0B82E59D0A82ECD
:107ED00000E011E055D0F80181938F01BE12FACF76
:107EE00061D0F5E4AF1201C0FFCFF401F7BEE89511
:107EF00007B600FCFDCFB401A0E0B1E02C911296D2
:107F0000AD0141505109FA01808130E0382BFB016D
:107F10000901E7BEE89511246E5F7F4FBA12EECFDC
:107F2000F401D7BEE89507B600FCFDCFC7BEE895C3
:107F30001DC0843769F424D023D0B82E21D032D08C
:107F40008401F80185918F0114D0BA94D1F70EC045
:107F5000853739F427D08EE10CD085E90AD08FE03F
:107F600094CF813511F488E017D01CD080E101D086
:107F70007CCF9091C00095FFFCCF8093C600089500
:107F80008091C00087FFFCCF8091C00084FD01C0BC
:107F9000A8958091C6000895E0E6F0E098E190830E
:107FA00080830895EDDF803219F088E0F5DFFFCFA0
:107FB00084E1DFCFCF93C82FE3DFC150E9F7CF9142
:0E7FC000F1CF282E80E0E8DFE0E0FF270994F3
:027FFE00020679
:00000001FF
