:100000000C9461000C947E000C947E000C947E0095
:100010000C947E000C947E000C947E000C947E0068
:100020000C947E000C947E000C947E000C947E0058
:100030000C947E000C947E000C947E000C947E0048
:100040000C9412020C947E000C947E000C947E00A2
:100050000C947E000C947E000C947E000C947E0028
:100060000C947E000C947E00000000090003020046
:10007000000405080000000000000000000000006F
:10008000000000250028002B0000000000240027AD
:10009000002A00040404040404040402020202020C
:1000A00002030303030303020203010204081020F6
:1000B0004080010204081020010204081020408042
:1000C000400011241FBECFEFD8E0DEBFCDBF11E04E
:1000D000A0E0B1E0E4EAFCE002C005900D92A4319A
:1000E000B107D9F721E0A4E1B1E001C01D92AC3223
:1000F000B207E1F70E945C020C9450060C940000D9
:1001000090E0FC01E655FF4F24918D569F4FFC0176
:100110008491882399F090E0880F991FFC01E7579C
:10012000FF4FA591B491FC01E158FF4F8591949147
:100130008FB7F894EC91E22BEC938FBF089590E089
:10014000FC01E859FF4F2491FC01E655FF4F349123
:10015000FC01ED56FF4FE491EE23C9F0222339F064
:10016000243001F1A8F4223069F1233079F1F0E074
:10017000EE0FFF1FE158FF4FA591B4918FB7F89490
:10018000EC91611126C030953E233C938FBF0895BA
:10019000283071F0293091F0253049F780918000A6
:1001A0008F7D03C0809180008F7780938000DFCFA8
:1001B0008091B0008F778093B000D9CF8091B0004C
:1001C0008F7DF9CF84B58F7784BDD1CF84B58F7DF6
:1001D000FBCF3E2BDACF1F93CF93DF93182FEB018A
:1001E0000E948000209739F460E0812FDF91CF9149
:1001F0001F910C949F00CF3FD10511F461E0F5CF22
:10020000E12FF0E0E859FF4FE491E43031F140F4A0
:10021000E230B1F0E330E1F0C038D1057CF7E4CF53
:10022000E83029F1E93059F1E530B1F780918000EB
:10023000806280938000D0938B00C0938A0004C0BA
:1002400084B5806884BDC7BDDF91CF911F910895AB
:1002500084B5806284BDC8BDF7CF8091800080687E
:1002600080938000D0938900C0938800EDCF809167
:10027000B00080688093B000C093B300E5CF809158
:10028000B00080628093B000C093B400DDCF8830AE
:1002900020F08D3008F48DE08E508770806480935C
:1002A0007C0080917A00806480937A0080917A004B
:1002B00086FDFCCF809178009091790008953FB73A
:1002C000F8948091280190912901A0912A01B09180
:1002D0002B0126B5A89B05C02F3F19F00196A11D43
:1002E000B11D3FBFBA2FA92F982F8827BC01CD0180
:1002F000620F711D811D911D46E0660F771F881FDB
:10030000991F4A95D1F708958F929F92AF92BF920D
:10031000CF92DF92EF92FF924B015C010E945F014E
:100320006B017C010E945F016C197D098E099F0998
:10033000683E734081059105A8F321E0821A910877
:10034000A108B10888EEC80E83E0D81EE11CF11C9C
:1003500081149104A104B10429F7FF90EF90DF907C
:10036000CF90BF90AF909F908F900895EF92FF92A3
:100370000F931F93CF93DF937B018C018F3F9105E8
:1003800019F014F00FEF10E001302FEF120714F402
:1003900001E01FEFE7012FEFE216F10419F014F06E
:1003A000CFEFD0E0C1302FEFD20714F4C1E0DFEF80
:1003B00097FD20C060E082E00E949F0061E083E042
:1003C0000E949F00F7FC22C060E088E00E949F002E
:1003D00061E089E00E949F00B80186E00E94EB0086
:1003E000BE0185E0DF91CF911F910F91FF90EF90BB
:1003F0000C94EB0061E082E00E949F0060E083E0EB
:100400000E949F00119501951109DCCF61E088E001
:100410000E949F0060E089E00E949F00D195C195F5
:10042000D109DACF1F920F920FB60F9211242F939A
:100430003F938F939F93AF93BF93809124019091AB
:100440002501A0912601B09127013091230120E3DD
:10045000230F2D3768F123EB230F4196A11DB11D0A
:10046000209323018093240190932501A0932601DA
:10047000B09327018091280190912901A0912A0130
:10048000B0912B010196A11DB11D8093280190937D
:100490002901A0932A01B0932B01BF91AF919F91A5
:1004A0008F913F912F910F900FBE0F901F90189535
:1004B0004096A11DB11DD4CFCF93DF93CDB7DEB74A
:1004C0002E970FB6F894DEBF0FBECDBF789484B5DB
:1004D000836084BD85B5836085BD80916E00816039
:1004E00080936E0082E08093810080918000816023
:1004F000809380008091B10084608093B1008091EE
:10050000B00081608093B00083E880937A001092FD
:10051000C10088E00E94800089E00E94800082E0A3
:100520000E94800083E00E94800085E00E9480009D
:1005300086E00E94800068EB7BE080E090E00E9413
:10054000840124E1222E21E0322E8AE0E0E0F1E075
:10055000DE01119601900D928A95E1F70AE011E013
:100560009E012F5F3F4F6901F12CE12C812C912CD2
:100570005401F80180810E5F1F4F0E9447018235B0
:10058000934074F4F60180819181092E000CAA0B2E
:10059000BB0B880E991EAA1EBB1EFFEFEF1AFF0AA7
:1005A00022E0C20ED11C2016310619F7109122014B
:1005B000E114F10409F4D0C09701FF0C440B550B72
:1005C000C501B4010E9431062901C90137FFB5C038
:1005D000EFEFFFEFF0931501E0931401112371F198
:1005E0001092220110921A0110921B0110921C010C
:1005F00010921D01109219011092180140911601DC
:100600005091170141155105C9F00097B9F031E03B
:10061000141615060CF030E021E0181619060CF03F
:1006200020E0321759F080911401909115019195B5
:1006300081959109909315018093140150921701AF
:1006400040921601B201052C000C880B990B0E94F8
:10065000ED044B015C0120911A0130911B01409186
:100660001C0150911D010E9444046B017C0120E09B
:1006700030E84BE355EC0E94B00487FDFCC020E05D
:1006800030E84BE355E4C701B6010E949D051816FA
:100690003CF4C12C90E8D92E9BE3E92E95E4F92E89
:1006A000C0921A01D0921B01E0921C01F0921D0130
:1006B0008091180190911901B201681B790B072EE6
:1006C000000C880B990B0E94ED0420E030E040E024
:1006D0005FE30E94A2056B877C878D879E872DEC48
:1006E0003CEC4CE45DE3C501B4010E94A2054B0162
:1006F0005C0120E030E0A901C701B6010E94A2051B
:100700009B01AC01C501B4010E9444049B01AC01F2
:100710006B857C858D859E850E9444040E94B5046E
:10072000509219014092180128E730E0261B370B40
:10073000CB0188589F4FB90149C0009709F44ECFAB
:1007400021E030E0309315012093140130E143168D
:1007500037E2530609F042CF111116C02FB7F894B3
:100760008091240190912501A0912601B09127014B
:100770002FBF80931E0190931F01A0932001B0937F
:10078000210161E0609322018FB7F894C0902401A9
:10079000D0902501E0902601F09027018FBF809135
:1007A0001E0190911F01A0912001B0912101C81A52
:1007B000D90AEA0AFB0A81EAC8168FE0D806E104E2
:1007C000F10438F070E060E090E080E00E94B60153
:1007D0004AC0C701B60124E130E040E050E00E9489
:1007E0000F062C593F4F293C310514F028EC30E01E
:1007F000409114015091150188279927821B930B72
:10080000E1EDCE16E7E0DE06E104F10430F04F3F03
:100810005F4F31F4BC01C90104C04F3F5F4FD1F7B6
:10082000B9010E94B60180E10E94470182359340E0
:10083000D4F470E060E090E080E00E94B60162E3F2
:1008400070E080E090E00E948401109222011092FA
:100850001A0110921B0110921C0110921D0110929E
:1008600019011092180120E030E0232B09F46DCE1D
:100870000E9400006ACEC12C80E8D82E8BE3E82EBF
:1008800085ECF82E0DCF5058BB27AA270E945B0499
:100890000C9463050E94550538F00E945C0520F019
:1008A00039F49F3F19F426F40C9452050EF4E095A8
:1008B000E7FB0C944C05E92F0E94740558F3BA1716
:1008C000620773078407950720F079F4A6F50C9466
:1008D00096050EF4E0950B2EBA2FA02D0B01B90151
:1008E00090010C01CA01A0011124FF27591B99F0A6
:1008F000593F50F4503E68F11A16F040A22F232FB2
:10090000342F4427585FF3CF469537952795A79501
:10091000F0405395C9F77EF41F16BA0B620B730BA8
:10092000840BBAF09150A1F0FF0FBB1F661F771F19
:10093000881FC2F70EC0BA0F621F731F841F48F4CE
:10094000879577956795B795F7959E3F08F0B0CF57
:100950009395880F08F09927EE0F9795879508953E
:100960000E94280508F481E008950E94BC04689460
:10097000B1110C94970508950E947C0588F09F574B
:1009800098F0B92F9927B751B0F0E1F0660F771FB3
:10099000881F991F1AF0BA95C9F714C0B13091F0A9
:1009A0000E949605B1E008950C949605672F782F64
:1009B0008827B85F39F0B93FCCF38695779567956E
:1009C000B395D9F73EF490958095709561957F4FDA
:1009D0008F4F9F4F0895E89409C097FB3EF4909580
:1009E0008095709561957F4F8F4F9F4F9923A9F008
:1009F000F92F96E9BB279395F69587957795679597
:100A0000B795F111F8CFFAF4BB0F11F460FF1BC0DA
:100A10006F5F7F4F8F4F9F4F16C0882311F096E96D
:100A200011C0772321F09EE8872F762F05C066231B
:100A300071F096E8862F70E060E02AF09A95660FD4
:100A4000771F881FDAF7880F9695879597F908958D
:100A5000990F0008550FAA0BE0E8FEEF16161706CF
:100A6000E807F907C0F012161306E407F50798F037
:100A7000621B730B840B950B39F40A2661F0232B50
:100A8000242B252B21F408950A2609F4A140A695CC
:100A90008FEF811D811D089597F99F6780E870E0B1
:100AA00060E008959FEF80EC089500240A941616E4
:100AB000170618060906089500240A94121613064C
:100AC000140605060895092E0394000C11F48823DA
:100AD00052F0BB0F40F4BF2B11F460FF04C06F5FF6
:100AE0007F4F8F4F9F4F089557FD9058440F551FCC
:100AF00059F05F3F71F04795880F97FB991F61F0A0
:100B00009F3F79F087950895121613061406551F16
:100B1000F2CF4695F1DF08C0161617061806991F82
:100B2000F1CF86957105610508940895E894BB2777
:100B300066277727CB0197F908950E94280508F4C6
:100B40008FEF08950E94B5050C9463050E9455052A
:100B500038F00E945C0520F0952311F00C944C05B0
:100B60000C94520511240C9497050E94740570F39F
:100B7000959FC1F3950F50E0551F629FF001729F42
:100B8000BB27F00DB11D639FAA27F00DB11DAA1F51
:100B9000649F6627B00DA11D661F829F2227B00D9E
:100BA000A11D621F739FB00DA11D621F839FA00D29
:100BB000611D221F749F3327A00D611D231F849F79
:100BC000600D211D822F762F6A2F11249F575040D0
:100BD0009AF0F1F088234AF0EE0FFF1FBB1F661F4B
:100BE000771F881F91505040A9F79E3F510580F014
:100BF0000C944C050C9497055F3FE4F3983ED4F3B6
:100C0000869577956795B795F795E7959F5FC1F7B7
:100C1000FE2B880F911D9695879597F90895A1E26F
:100C20001A2EAA1BBB1BFD010DC0AA1FBB1FEE1F66
:100C3000FF1FA217B307E407F50720F0A21BB30BB1
:100C4000E40BF50B661F771F881F991F1A9469F72D
:100C500060957095809590959B01AC01BD01CF0189
:100C60000895052E97FB1EF400940E94480657FD38
:100C700007D00E940F0607FC03D04EF40C944806E0
:100C800050954095309521953F4F4F4F5F4F0895B8
:100C900090958095709561957F4F8F4F9F4F0895E8
:040CA000F894FFCFF6
:100CA40030F818FC0000E803D0070E000F00100015
:040CB4001100120019
:00000001FF
