:020000040000FA
:100000000C9461000C947E000C947E000C947E0095
:100010000C947E000C947E000C947E000C947E0068
:100020000C947E000C947E000C947E000C947E0058
:100030000C947E000C947E000C947E000C947E0048
:100040000C941F010C947E000C947E000C947E0096
:100050000C947E000C947E000C947E000C947E0028
:100060000C947E000C947E00000000002400270009
:100070002A0000000000250028002B0004040404CE
:100080000404040402020202020203030303030342
:10009000020203010204081020408001020408103B
:1000A00020010204081020408040000000090003E5
:1000B000020000040508000000000000000000002D
:1000C000000011241FBECFEFD8E0DEBFCDBF11E08E
:1000D000A0E0B1E0E2EFF3E002C005900D92AA309B
:1000E000B107D9F721E0AAE0B1E001C01D92A33128
:1000F000B207E1F70E9469010C94F7010C9400002B
:10010000E7EBF0E02491E0EAF0E09491E9E8F0E038
:10011000E491EE23C9F0222339F0243001F1A8F450
:10012000223069F1233079F1F0E0EE0FFF1FEE5835
:10013000FF4FA591B4912FB7F894EC91811126C08F
:1001400090959E239C932FBF0895283071F02930FD
:1001500091F0253049F7209180002F7D03C0209138
:1001600080002F7720938000DFCF2091B0002F7781
:100170002093B000D9CF2091B0002F7DF9CF24B5C6
:100180002F7724BDD1CF24B52F7DFBCF9E2BDACF87
:100190003FB7F89480910F0190911001A091110147
:1001A000B091120126B5A89B05C02F3F19F001960A
:1001B000A11DB11D3FBFBA2FA92F982F8827BC01C1
:1001C000CD01620F711D811D911D46E0660F771FE5
:1001D000881F991F4A95D1F708958F929F92AF92E9
:1001E000BF92CF92DF92EF92FF924B015C010E948F
:1001F000C8006B017C010E94C8006C197D098E0942
:100200009F09683E734081059105A8F321E0821A99
:100210009108A108B10888EEC80E83E0D81EE11C41
:10022000F11C81149104A104B10429F7FF90EF900F
:10023000DF90CF90BF90AF909F908F9008951F92C6
:100240000F920FB60F9211242F933F938F939F938A
:10025000AF93BF9380910B0190910C01A0910D0180
:10026000B0910E0130910A0120E3230F2D3768F180
:1002700023EB230F4196A11DB11D20930A0180930A
:100280000B0190930C01A0930D01B0930E0180918E
:100290000F0190911001A0911101B09112010196EE
:1002A000A11DB11D80930F0190931001A093110126
:1002B000B0931201BF91AF919F918F913F912F9178
:1002C0000F900FBE0F901F9018954096A11DB11D65
:1002D000D4CF789484B5836084BD85B5836085BDB3
:1002E00080916E00816080936E0082E08093810037
:1002F000809180008160809380008091B100846053
:100300008093B1008091B00081608093B00083E859
:1003100080937A001092C100E0EAF0E02491E9E8CD
:10032000F0E08491882399F090E0880F991FFC01F8
:10033000E859FF4FA591B491FC01EE58FF4F85910C
:1003400094918FB7F894EC91E22BEC938FBF00E07F
:1003500010E0E0E0F1E0D0E0C0E090813296892F3B
:10036000983020F09D3008F48DE08E5087708064C6
:1003700080937C0080917A00806480937A008091E1
:100380007A0086FDFCCF8091780090917900853FBE
:1003900091400CF0219681E0EA30F807F1F6F12C5B
:1003A000E12CEC16FD06B1F081E00E94800068ECC3
:1003B00070E080E090E00E94ED0080E00E9480000C
:1003C00068EC70E080E090E00E94ED002FEFE21A10
:1003D000F20AE7CF64EF71E080E090E00E94ED0068
:1003E0000115110509F4B5CF0E940000B2CFF894B1
:0C03F000FFCF0E000F00100011001200E3
:107E8000112424B614BE80E079D021FEEBC08EE030
:107E900075D0E0ECF0E0AFE7BFEF4899FECF9096E9
:107EA000489BFDCFB4831197F1F7B2E0B083B8E1FE
:107EB000B18352D0C82F823569F466D0E0E0FEE786
:107EC000A89583E093D091D0E058F109C8F787E7EF
:107ED0003CD0EFCF8D7FD9F44CD0D82FA0E0B1E0CB
:107EE0003BD08D93DA13FCCFA0E0B1E04DD0C111AF
:107EF0000CC0F2BDE1BD8D9180BDFA9AF99A319620
:107F0000F999FECFD150A9F7E2CF48D0E0CFC330E6
:107F100041F42FD0C82F38D0859117D0C150E1F748
:107F2000D6CFC13061F425D0C82F2ED0F2BDE1BD2F
:107F3000F89A80B50AD03196C150C1F7C8CFC13583
:107F400011F488E01BD020D0C2CF9091C00095FFE3
:107F5000FCCF8093C60008952D9A259A8091C00089
:107F600087FFFCCF84FD13C0A8958091C6002D9893
:107F70000895F2DFE82FF0DFF82FEECF98E190932D
:107F80006000809360000895E7DF803219F088E098
:107F9000F5DFFFCF80EAD9CFFB01DC01E07870E8A4
:107FA0007A0F9F01E0388EE7F80728F5309629F41C
:107FB0008FE38D938FEC8C93119790E045915D91B9
:107FC00045139160A713FACFF901A058B10990FFAA
:107FD00012C083E00BD081E00D901D9007D0329647
:107FE000A713FACFF90185E001D081E187BFE895B9
:107FF00017B610FCFDCF112408950319CDCFE7402B
:00000001FF
