:020000040000FA
:100000000C9461000C9473000C9473000C947300B6
:100010000C9473000C9473000C9473000C94730094
:100020000C9473000C9473000C9473000C94730084
:100030000C9473000C9473000C9473000C94730074
:100040000C94D8010C9473000C9473000C947300FE
:100050000C9473000C9473000C9473000C94730054
:100060000C9473000C94730000000009000302005C
:10007000000405080000000000000000000000006F
:10008000000000250028002B0000000000240027AD
:10009000002A00040404040404040402020202020C
:1000A00002030303030303020203010204081020F6
:1000B0004080010204081020010204081020408042
:1000C000400011241FBECFEFD8E0DEBFCDBF21E03E
:1000D000A0E0B1E001C01D92A930B207E1F70E9493
:1000E00022020C9444030C94000090E0FC01E655BD
:1000F000FF4F24918D569F4FFC018491882399F0E6
:1001000090E0880F991FFC01E757FF4FA591B4912C
:10011000FC01E158FF4F859194918FB7F894EC91D1
:10012000E22BEC938FBF089590E0FC01E859FF4F5C
:100130002491FC01E655FF4F3491FC01ED56FF4F31
:10014000E491EE23C9F0222339F0243001F1A8F420
:10015000223069F1233079F1F0E0EE0FFF1FE15812
:10016000FF4FA591B4918FB7F894EC91611126C01F
:1001700030953E233C938FBF0895283071F029308D
:1001800091F0253049F7809180008F7D03C08091E8
:1001900080008F7780938000DFCF8091B0008F77D1
:1001A0008093B000D9CF8091B0008F7DF9CF84B516
:1001B0008F7784BDD1CF84B58F7DFBCF3E2BDACF37
:1001C0003FB7F8948091050190910601A091070135
:1001D000B091080126B5A89B05C02F3F19F00196E4
:1001E000A11DB11D3FBFBA2FA92F982F8827BC0191
:1001F000CD01620F711D811D911D43E0660F771FB8
:10020000881F991F4A95D1F708958F929F92AF92B8
:10021000BF92CF92DF92EF92FF924B015C010E945E
:10022000E0006B017C010E94E0006C197D098E09E1
:100230009F09683E734081059105A8F321E0821A69
:100240009108A108B10888EEC80E83E0D81EE11C11
:10025000F11C81149104A104B10429F7FF90EF90DF
:10026000DF90CF90BF90AF909F908F900895FF92B6
:100270000F931F93CF93DF93162FF42EE9012F3F97
:10028000310519F014F0CFEFD0E0C1309FEFD9075E
:1002900014F4C1E0DFEF12161306C4F461E00E940B
:1002A000940060E0812F0E9494008E0111278F2D11
:1002B0000E94750001151105F9F460E08F2DDF91A2
:1002C000CF911F910F91FF900C94940060E0232B2D
:1002D00051F00E94940061E0812F0E949400D1951A
:1002E000C195D109E2CF0E94940060E0812F0E9465
:1002F0009400D0E0C0E0D9CF0F3F110511F461E0C8
:10030000DDCFEF2DF0E0E859FF4FE491E43041F10B
:1003100040F4E230B1F0E330F1F0003811057CF741
:10032000CCCFE83039F1E93069F1E530B1F78091AF
:10033000800080628093800010938B0000938A007D
:1003400004C084B5806884BDC7BDDF91CF911F9183
:100350000F91FF90089584B5806284BDC8BDF5CF2C
:1003600080918000806880938000109389000093C2
:100370008800EBCF8091B00080688093B000C0937C
:10038000B300E3CF8091B00080628093B000C0934F
:10039000B400DBCF30E020E045E069E088E00E9477
:1003A000370130E020E046E063E082E00C94370162
:1003B0001F920F920FB60F9211242F933F938F939A
:1003C0009F93AF93BF938091010190910201A091FF
:1003D0000301B09104013091000126E0230F2D3775
:1003E00068F129E8230F0396A11DB11D2093000198
:1003F0008093010190930201A0930301B093040143
:100400008091050190910601A0910701B09108012A
:100410000196A11DB11D8093050190930601A09343
:100420000701B0930801BF91AF919F918F913F91C8
:100430002F910F900FBE0F901F9018950296A11D3F
:10044000B11DD4CF789484B5836084BD85B58360B5
:1004500085BD80916E00816080936E0082E0809304
:100460008100809181008160809381008091800073
:100470008160809380008091B10084608093B1009E
:100480008091B00081608093B00086E880937A000C
:100490001092C10085E00E94750088E00E947500FE
:1004A00089E00E94750086E00E94750082E00E944B
:1004B000750083E00E9475008DE00E947500C3E026
:1004C00061E08DE00E94940068EC70E080E090E0D4
:1004D0000E94050160E08DE00E94940068EC70E0ED
:1004E00080E090E00E940501C15051F76CED75E08D
:1004F00080E090E00E940501C0E0D0E061E08DE086
:100500000E94940020EA30E045E069E088E00E9423
:10051000370120EA30E046E063E082E00E943701E4
:100520006CED75E080E090E00E9405010E94CA0138
:1005300064EF71E080E090E00E94050160E08DE0F2
:100540000E94940020E63FEF45E069E088E00E94C9
:10055000370120E63FEF46E063E082E00E9437018A
:100560006CED75E080E090E00E9405010E94CA01F8
:1005700064EF71E080E090E00E94050161E08DE0B1
:100580000E94940020EA30E045E069E088E00E94A3
:10059000370125E330E046E063E082E00E94370166
:1005A00060E273E080E090E00E9405010E94CA01D1
:1005B00064EF71E080E090E00E94050160E08DE072
:1005C0000E94940025E330E045E069E088E00E9465
:1005D000370120EA30E046E063E082E00E94370124
:1005E00060E273E080E090E00E9405010E94CA0191
:1005F00064EF71E080E090E00E94050161E08DE031
:100600000E94940020EA30E045E069E088E00E9422
:10061000370120E63FEF46E063E082E00E943701C9
:1006200068E572E080E090E00E9405010E94CA0146
:1006300064EF71E080E090E00E94050160E08DE0F1
:100640000E94940020E63FEF45E069E088E00E94C8
:10065000370120EA30E046E063E082E00E943701A3
:1006600068E572E080E090E00E9405010E94CA0106
:1006700060ED77E080E090E00E940501209709F4AA
:0C0680003DCF0E9400003ACFF894FFCF5D
:107E8000112424B614BE80E079D021FEEBC08EE030
:107E900075D0E0ECF0E0AFE7BFEF4899FECF9096E9
:107EA000489BFDCFB4831197F1F7B2E0B083B8E1FE
:107EB000B18352D0C82F823569F466D0E0E0FEE786
:107EC000A89583E093D091D0E058F109C8F787E7EF
:107ED0003CD0EFCF8D7FD9F44CD0D82FA0E0B1E0CB
:107EE0003BD08D93DA13FCCFA0E0B1E04DD0C111AF
:107EF0000CC0F2BDE1BD8D9180BDFA9AF99A319620
:107F0000F999FECFD150A9F7E2CF48D0E0CFC330E6
:107F100041F42FD0C82F38D0859117D0C150E1F748
:107F2000D6CFC13061F425D0C82F2ED0F2BDE1BD2F
:107F3000F89A80B50AD03196C150C1F7C8CFC13583
:107F400011F488E01BD020D0C2CF9091C00095FFE3
:107F5000FCCF8093C60008952D9A259A8091C00089
:107F600087FFFCCF84FD13C0A8958091C6002D9893
:107F70000895F2DFE82FF0DFF82FEECF98E190932D
:107F80006000809360000895E7DF803219F088E098
:107F9000F5DFFFCF80EAD9CFFB01DC01E07870E8A4
:107FA0007A0F9F01E0388EE7F80728F5309629F41C
:107FB0008FE38D938FEC8C93119790E045915D91B9
:107FC00045139160A713FACFF901A058B10990FFAA
:107FD00012C083E00BD081E00D901D9007D0329647
:107FE000A713FACFF90185E001D081E187BFE895B9
:107FF00017B610FCFDCF112408950319CDCFE7402B
:00000001FF
