:100000000C945F000C9487000C9487000C9487007C
:100010000C9487000C9487000C9487000C94870044
:100020000C9487000C9487000C9487000C94870034
:100030000C9487000C9487000C9487000C94870024
:100040000C9414030C9487000C9484030C945E03AA
:100050000C9487000C9487000C9487000C94870004
:100060000C9487000C948700000000080002010037
:100070000003040700000000000000000000000072
:1000800000250028002B0000000000240027002A83
:100090000004040404040404040202020202020331
:1000A000030303030302010204081020408001023D
:1000B000040810200102040810208000C00611244A
:1000C0001FBECFEFD8E0DEBFCDBF11E0A0E0B1E0B2
:1000D000E6EBF2E102C005900D92A433B107D9F727
:1000E00021E0A4E3B1E001C01D92A83FB207E1F70F
:1000F00010E0CFE5D0E004C02197FE010E94530933
:10010000CE35D107C9F70E94B6030C9459090C9457
:10011000000090E0FC01EA55FF4F24918F569F4F5D
:10012000FC018491882399F090E0880F991FFC01CD
:10013000E957FF4FA591B491FC01E358FF4F85911A
:1001400094918FB7F894EC91E22BEC938FBF0895C4
:1001500090E0FC01E859FF4F2491FC01EA55FF4F64
:100160003491FC01EF56FF4FE491EE23C9F02223B6
:1001700039F0233001F1A8F4213019F1223029F1AE
:10018000F0E0EE0FFF1FE358FF4FA591B4918FB73A
:10019000F894EC91611126C030953E233C938FBFBB
:1001A00008952730A9F02830C9F0243049F780910C
:1001B00080008F7D03C0809180008F7780938000C6
:1001C000DFCF84B58F7784BDDBCF84B58F7DFBCF48
:1001D0008091B0008F778093B000D2CF8091B00033
:1001E0008F7DF9CF3E2BDACF1F93CF93DF93182F5C
:1001F000EB010E948900209739F460E0812FDF91A4
:10020000CF911F910C94A800CF3FD10511F461E06C
:10021000F5CFE12FF0E0E859FF4FE491E33031F101
:1002200040F4E130B1F0E230E1F0C038D1057CF7C4
:10023000E4CFE73029F1E83059F1E430B1F78091AB
:100240008000806280938000D0938B00C0938A00EE
:1002500004C084B5806884BDC7BDDF91CF911F9174
:10026000089584B5806284BDC8BDF7CF80918000B9
:10027000806880938000D0938900C0938800EDCF80
:100280008091B00080688093B000C093B300E5CF48
:100290008091B00080628093B000C093B400DDCF45
:1002A0003FB7F8948091F4019091F501A091F60187
:1002B000B091F70126B5A89B05C02F3F19F0019614
:1002C000A11DB11D3FBFBA2FA92F982F8827BC01B0
:1002D000CD01620F711D811D911D42E0660F771FD8
:1002E000881F991F4A95D1F708958F929F92AF92D8
:1002F000BF92CF92DF92EF92FF924B015C010E947E
:1003000050016B017C010E9450016C197D098E091E
:100310009F09683E734081059105A8F321E0821A88
:100320009108A108B10888EEC80E83E0D81EE11C30
:10033000F11C81149104A104B10429F7FF90EF90FE
:10034000DF90CF90BF90AF909F908F900895AF9225
:10035000BF92CF92DF92EF92FF920F931F93CF93B2
:10036000DF936C017B018B01040F151FEB015E0114
:10037000AE18BF08C017D10759F06991D601ED91A9
:10038000FC910190F081E02DC6010995892B79F748
:10039000C501DF91CF911F910F91FF90EF90DF90FA
:1003A000CF90BF90AF900895FC01538D448D252FC1
:1003B00030E0842F90E0821B930B541710F0CF96FF
:1003C000089501970895FC01918D828D981761F031
:1003D000A28DAE0FBF2FB11D5D968C91928D9F5F48
:1003E0009F73928F90E008958FEF9FEF0895FC0127
:1003F000918D828D981731F0828DE80FF11D858DDA
:1004000090E008958FEF9FEF0895FC01918D228D6C
:10041000892F90E0805C9F4F821B91098F739927F1
:10042000089584E391E00E94050221E0892B09F4FC
:1004300020E0822F089580E090E0892B29F00E942F
:10044000110281110C9400000895FC01A48DA80FE5
:10045000B92FB11DA35ABF4F2C91848D90E0019606
:100460008F739927848FA689B7892C93A089B18926
:100470008C91837080648C93938D848D981306C0C7
:100480000288F389E02D80818F7D80830895EF922B
:10049000FF920F931F93CF93DF93EC0181E0888F3E
:1004A0009B8D8C8D98131AC0E889F989808185FF0E
:1004B00015C09FB7F894EE89FF896083E889F989B0
:1004C00080818370806480839FBF81E090E0DF91B2
:1004D000CF911F910F91FF90EF900895F62E0B8D05
:1004E00010E00F5F1F4F0F731127E02E8C8D8E11C0
:1004F0000CC00FB607FCFACFE889F989808185FF27
:10050000F5CFCE010E942502F1CFEB8DEC0FFD2F30
:10051000F11DE35AFF4FF0829FB7F8940B8FEA89E1
:10052000FB8980818062CFCFCF93DF93EC01888DF0
:100530008823B9F0AA89BB89E889F9898C9185FD5E
:1005400003C0808186FD0DC00FB607FCF7CF8C91EC
:1005500085FFF2CF808185FFEDCFCE010E9425027D
:10056000E9CFDF91CF9108950F931F93CF93DF933E
:1005700081302FEF92070CF44CC08C018F3F910516
:1005800019F014F00FEF10E0C1E0DFEF61308FEFF2
:1005900078073CF0EB016F3F710519F014F0CFEFD5
:1005A000D0E017FD1EC061E08AE00E94A80060E074
:1005B0008BE00E94A800D7FD20C061E088E00E9487
:1005C000A80060E089E00E94A800B80186E00E94CF
:1005D000F400BE0185E0DF91CF911F910F910C9443
:1005E000F40060E08AE00E94A80061E08BE00E94D5
:1005F000A800119501951109DECF60E088E00E9406
:10060000A80061E089E00E94A800D195C195D109B8
:10061000DCCFC1E0DFEF01E01FEF61302FEF7207A9
:1006200004F301E01FEFB6CF1F920F920FB60F92A7
:1006300011242F933F938F939F93AF93BF938091F8
:10064000F0019091F101A091F201B091F30130918C
:10065000EF0123E0230F2D3758F50196A11DB11DA1
:100660002093EF018093F0019093F101A093F201A8
:10067000B093F3018091F4019091F501A091F601FE
:10068000B091F7010196A11DB11D8093F4019093E3
:10069000F501A093F601B093F701BF91AF919F913F
:1006A0008F913F912F910F900FBE0F901F90189533
:1006B00026E8230F0296A11DB11DD2CF1F920F92E3
:1006C0000FB60F9211242F933F934F935F936F9325
:1006D0007F938F939F93AF93BF93EF93FF9384E3A5
:1006E00091E00E942502FF91EF91BF91AF919F9100
:1006F0008F917F916F915F914F913F912F910F90CB
:100700000FBE0F901F9018951F920F920FB60F9269
:1007100011242F938F939F93EF93FF93E0914401C4
:10072000F09145018081E0914A01F0914B0182FDF9
:100730001BC0908180914D018F5F8F7320914E017E
:10074000821741F0E0914D01F0E0EC5CFE4F958F97
:1007500080934D01FF91EF919F918F912F910F9079
:100760000FBE0F901F9018958081F4CFCF93DF9329
:10077000CDB7DEB760970FB6F894DEBF0FBECDBF22
:10078000789484B5826084BD84B5816084BD85B56C
:10079000826085BD85B5816085BD80916E00816078
:1007A00080936E001092810080918100826080931E
:1007B0008100809181008160809381008091800020
:1007C0008160809380008091B10084608093B1004B
:1007D0008091B00081608093B00080917A00846045
:1007E00080937A0080917A00826080937A00809171
:1007F0007A00816080937A0080917A00806880938B
:100800007A001092C100E0914401F091450182E02C
:100810008083E0914001F09141011082E09142011A
:10082000F09143018FEC808310924C01E0914801DC
:10083000F091490186E08083E0914601F091470103
:10084000808180618083E0914601F0914701808141
:1008500088608083E0914601F09147018081806843
:100860008083E0914601F091470180818F7D8083F4
:1008700088E00E94890089E00E9489008AE00E9445
:1008800089008BE00E94890085E00E94890086E053
:100890000E94890070E060E090E080E00E94B40275
:1008A00068EB7BE080E090E00E94750106E910E0D3
:1008B00022242394312C8AE0E2E0F1E0DE0111965B
:1008C00001900D928A95E1F7EAE2F1E09E012F5F37
:1008D0003F4FF12CE12C40E050E0BA01808132968C
:1008E0008E3008F08E508770806480937C008091F9
:1008F0007A00806480937A0080917A0086FDFCCF34
:100900008091780090917900853F914074F0D901F1
:100910008D919C91092E000CAA0BBB0B480F591FFF
:100920006A1F7B1FBFEFEB1AFB0A2E5F3F4FA4E34A
:100930004A2EA1E05A2E4E165F0681F6E114F1040C
:1009400069F1CB01BA010E9409084B015C01B701B2
:10095000FF0C880B990B0E9409089B01AC01C50193
:10096000B4010E945F076B017C0120E030E048E4A5
:1009700053EC0E945A0787FF87C066246A94762C3E
:10098000709201016092000120E030E44CE156E4F5
:10099000C701B6010E945A0781110BC18091ED0178
:1009A0009091EE01892B19F53092EE012092ED0124
:1009B0002FB7F8948091F0019091F101A091F2018C
:1009C000B091F3012FBF8093E9019093EA01A093C6
:1009D000EB01B093EC011092E8011092E701109244
:1009E000E3011092E4011092E5011092E6018FB745
:1009F000F8948090F0019090F101A090F201B090F5
:100A0000F3018FBF8091ED019091EE01813091054E
:100A100009F04AC060EB7FEF80EB9FEF0E94B402C9
:100A20008091E9019091EA01A091EB01B091EC0174
:100A3000A5019401281B390B4A0B5B0BDA01C90194
:100A4000893C9105A105B10590F042E050E050933A
:100A5000EE014093ED018092E9019092EA01A092AB
:100A6000EB01B092EC011092E8011092E70180E0F6
:100A700090E0892B09F41FCF0E941102882309F40A
:100A80001ACF0E94000017CF20E030E048E453E482
:100A9000C701B6010E94B90818160CF075CF309244
:100AA00001012092000170CF029709F78CE0ECE081
:100AB000F1E0DE01119601900D928A95E1F7E09048
:100AC000E701F090E8015FE05E9DC0015F9D900D41
:100AD0001124865A9F4F853B910514F084EB90E0DA
:100AE000C0900001D090010122273327281B390B29
:100AF000B901AFEFCA16DA0611F4BC01C9010E94B0
:100B0000B40288EE93E0B6E0EB16F10464F4F7016A
:100B1000EE0FFF1F44244394512C4C0E5D1EE40D38
:100B2000F51D808191814091E9015091EA01609128
:100B3000EB017091EC0124013501441A550A660A53
:100B4000770AB301A201092E000CAA0BBB0B841774
:100B50009507A607B70708F08ACF8092E90190921F
:100B6000EA01A092EB01B092EC012FEFE21AF20A37
:100B7000F092E801E092E70139E0E316F1040CF4A9
:100B800076CF70E060E090E080E00E94B40260ED1B
:100B900077E080E090E00E9475011092E8011092E9
:100BA000E701D194C194D108D0920101C092000113
:100BB0005ECF1092EE011092ED018091E1019091D3
:100BC000E201FC01EE0FFF1FEE0FFF1FEB52FE4F85
:100BD000C082D182E282F382019663E070E00E94DB
:100BE0002B099093E2018093E10120E030E0A9011C
:100BF0006091D5017091D6018091D7019091D80173
:100C00000E94EE062091D9013091DA014091DB017A
:100C10005091DC010E94EE062091DD013091DE0151
:100C20004091DF015091E0010E94EE0620E030E0AB
:100C300040E450E40E945F072B013C012091E30156
:100C40003091E4014091E5015091E6010E94EE06E9
:100C50006B017C0120E030E84BE355EC0E945A0721
:100C600087FD82C020E030E84BE355E4C701B601C0
:100C70000E94B90818163CF4C12C20E8D22E2BE3B0
:100C8000E22E25E4F22EC092E301D092E401E0923C
:100C9000E501F092E6012091D1013091D20140911D
:100CA000D3015091D401C301B2010E94ED062DEC95
:100CB0003CEC4CE45FE30E94BE084B015C012AE976
:100CC00039E949E15EE3C301B2010E94BE086D87C4
:100CD0007E878F87988B2FE632E143E85AE3C7017E
:100CE000B6010E94BE089B01AC016D857E858F8593
:100CF00098890E94EE069B01AC01C501B4010E94D7
:100D0000EE064B015C014092D1015092D2016092FB
:100D1000D3017092D40120E030E0A9010E94B9080B
:100D20002AE037ED43E25DE3181634F5C501B4015E
:100D30000E94BE080E94D1077801E61AF70A4CE328
:100D4000E416F1041CF48CE3E82EF12CC501B40187
:100D50000E94D1079701261B370BC701860F971FEB
:100D6000B9010E94B40283CEC12C90E8D92E9BE336
:100D7000E92E95ECF92E87CFC501B4019058D8CF54
:100D8000E4E3F1E01382128288EE93E0A0E0B0E0A9
:100D900084839583A683B7838CE191E091838083DC
:100DA00085EC90E09587848784EC90E09787868730
:100DB00080EC90E0918B808B81EC90E0938B828B28
:100DC00082EC90E0958B848B86EC90E0978B868B01
:100DD000118E128E138E148E08955058BB27AA2799
:100DE0000E9405070C947F080E94710838F00E9449
:100DF000780820F039F49F3F19F426F40C946E081B
:100E00000EF4E095E7FB0C946808E92F0E94900827
:100E100058F3BA17620773078407950720F079F42F
:100E2000A6F50C94B2080EF4E0950B2EBA2FA02D67
:100E30000B01B90190010C01CA01A0011124FF2787
:100E4000591B99F0593F50F4503E68F11A16F04082
:100E5000A22F232F342F4427585FF3CF4695379581
:100E60002795A795F0405395C9F77EF41F16BA0B46
:100E7000620B730B840BBAF09150A1F0FF0FBB1FF4
:100E8000661F771F881FC2F70EC0BA0F621F731F3D
:100E9000841F48F4879577956795B795F7959E3F9A
:100EA00008F0B0CF9395880F08F09927EE0F97952B
:100EB000879508950E94440808F481E008950E94EF
:100EC00073070C947F080E94780858F00E947108FC
:100ED00040F029F45F3F29F00C94680851110C94FC
:100EE000B3080C946E080E94900868F39923B1F33C
:100EF000552391F3951B550BBB27AA276217730740
:100F0000840738F09F5F5F4F220F331F441FAA1FD3
:100F1000A9F335D00E2E3AF0E0E832D0915050408F
:100F2000E695001CCAF72BD0FE2F29D0660F771F3D
:100F3000881FBB1F261737074807AB07B0E809F023
:100F4000BB0B802DBF01FF2793585F4F3AF09E3FA8
:100F5000510578F00C9468080C94B3085F3FE4F3F3
:100F6000983ED4F3869577956795B795F7959F5FEB
:100F7000C9F7880F911D9695879597F90895E1E037
:100F8000660F771F881FBB1F621773078407BA0796
:100F900020F0621B730B840BBA0BEE1F88F7E095F1
:100FA00008950E94D8076894B1110C94B30808956D
:100FB0000E94980888F09F5798F0B92F9927B75149
:100FC000B0F0E1F0660F771F881F991F1AF0BA95ED
:100FD000C9F714C0B13091F00E94B208B1E0089591
:100FE0000C94B208672F782F8827B85F39F0B93F83
:100FF000CCF3869577956795B395D9F73EF49095A0
:101000008095709561957F4F8F4F9F4F0895E8941D
:1010100009C097FB3EF490958095709561957F4F40
:101020008F4F9F4F9923A9F0F92F96E9BB279395EE
:10103000F695879577956795B795F111F8CFFAF4FE
:10104000BB0F11F460FF1BC06F5F7F4F8F4F9F4F2F
:1010500016C0882311F096E911C0772321F09EE88D
:10106000872F762F05C0662371F096E8862F70E0F3
:1010700060E02AF09A95660F771F881FDAF7880FCD
:101080009695879597F90895990F0008550FAA0B23
:10109000E0E8FEEF16161706E807F907C0F012168B
:1010A0001306E407F50798F0621B730B840B950B8E
:1010B00039F40A2661F0232B242B252B21F40895E3
:1010C0000A2609F4A140A6958FEF811D811D089580
:1010D00097F99F6780E870E060E008959FEF80ECEB
:1010E000089500240A94161617061806090608958E
:1010F00000240A9412161306140605060895092EF4
:101100000394000C11F4882352F0BB0F40F4BF2B62
:1011100011F460FF04C06F5F7F4F8F4F9F4F0895A2
:1011200057FD9058440F551F59F05F3F71F0479598
:10113000880F97FB991F61F09F3F79F0879508957D
:10114000121613061406551FF2CF4695F1DF08C09C
:10115000161617061806991FF1CF869571056105B9
:1011600008940895E894BB2766277727CB0197F961
:1011700008950E94440808F48FEF08950E94D10852
:101180000C947F080E94710838F00E94780820F0C3
:10119000952311F00C9468080C946E0811240C949B
:1011A000B3080E94900870F3959FC1F3950F50E02B
:1011B000551F629FF001729FBB27F00DB11D639F09
:1011C000AA27F00DB11DAA1F649F6627B00DA11DAF
:1011D000661F829F2227B00DA11D621F739FB00D55
:1011E000A11D621F839FA00D611D221F749F3327C5
:1011F000A00D611D231F849F600D211D822F762F5E
:101200006A2F11249F5750409AF0F1F088234AF03A
:10121000EE0FFF1FBB1F661F771F881F91505040A6
:10122000A9F79E3F510580F00C9468080C94B30810
:101230005F3FE4F3983ED4F3869577956795B7952D
:10124000F795E7959F5FC1F7FE2B880F911D969547
:10125000879597F9089597FB072E16F4009407D009
:1012600077FD09D00E943F0907FC05D03EF4909518
:1012700081959F4F0895709561957F4F0895AA1BA2
:10128000BB1B51E107C0AA1FBB1FA617B70710F071
:10129000A61BB70B881F991F5A95A9F780959095A3
:1012A000BC01CD010895EE0FFF1F0590F491E02DD4
:0612B0000994F894FFCF41
:1012B600010030F818FC0000E803D0072C0190016B
:1012C600F40158022003E803000000004702A701CA
:1012D600D40194020502E301F7010E000F0010008D
:0412E60011001200E1
:00000001FF
