:100000000C945E000C947B000C947B000C947B00A1
:100010000C947B000C947B000C947B000C947B0074
:100020000C947B000C947B000C947B000C947B0064
:100030000C947B000C947B000C947B000C947B0054
:100040000C94F4010C947B000C947B000C947B00CA
:100050000C947B000C947B000C947B000C947B0034
:100060000C947B000C947B0000000008000201004F
:100070000003040700000000000000000000000072
:1000800000250028002B0000000000240027002A83
:100090000004040404040404040202020202020331
:1000A000030303030302010204081020408001023D
:1000B00004081020010204081020800011241FBE33
:1000C000CFEFD8E0DEBFCDBF11E0A0E0B1E0E6E3C6
:1000D000FCE002C005900D92A031B107D9F721E0F4
:1000E000A0E1B1E001C01D92A632B207E1F70E9483
:1000F0003E020C9419060C94000090E0FC01EA55B5
:10010000FF4F24918F569F4FFC018491882399F0D3
:1001100090E0880F991FFC01E957FF4FA591B4911A
:10012000FC01E358FF4F859194918FB7F894EC91BF
:10013000E22BEC938FBF089590E0FC01E859FF4F4C
:100140002491FC01EA55FF4F3491FC01EF56FF4F1B
:10015000E491EE23C9F0222339F0233001F1A8F411
:10016000213019F1223029F1F0E0EE0FFF1FE358A2
:10017000FF4FA591B4918FB7F894EC91611126C00F
:1001800030953E233C938FBF08952730A9F0283047
:10019000C9F0243049F7809180008F7D03C08091A1
:1001A00080008F7780938000DFCF84B58F7784BD08
:1001B000DBCF84B58F7DFBCF8091B0008F778093AC
:1001C000B000D2CF8091B0008F7DF9CF3E2BDACF37
:1001D0008E3008F08E508770806480937C00809110
:1001E0007A00806480937A0080917A0086FDFCCF4B
:1001F000809178009091790008953FB7F8948091AC
:10020000220190912301A0912401B091250126B5EE
:10021000A89B05C02F3F19F00196A11DB11D3FBF3E
:10022000BA2FA92F982F8827BC01CD01620F711D0D
:10023000811D911D42E0660F771F881F991F4A9507
:10024000D1F708958F929F92AF92BF92CF92DF9293
:10025000EF92FF924B015C010E94FD006B017C015B
:100260000E94FD006C197D098E099F09683E73404C
:1002700081059105A8F321E0821A9108A108B1082F
:1002800088EEC80E83E0D81EE11CF11C8114910495
:10029000A104B10429F7FF90EF90DF90CF90BF90B9
:1002A000AF909F908F9008950F931F93CF93DF93FC
:1002B000062F142FE90137FD14C061E00E949C0055
:1002C00060E0802F0E949C00812F0E947D0020977B
:1002D00099F460E0812FDF91CF911F910F910C94E1
:1002E0009C0060E00E949C0061E0802F0E949C00C6
:1002F000D195C195D109E8CFCF3FD10511F461E087
:10030000E9CFE12FF0E0E859FF4FE491E33039F114
:1003100040F4E130B1F0E230E9F0C038D1057CF7CB
:10032000D8CFE73031F1E83061F1E430B1F78091B6
:100330008000806280938000D0938B00C0938A00FD
:1003400004C084B5806884BDC7BDDF91CF911F9183
:100350000F91089584B5806284BDC8BDF6CF8091A9
:100360008000806880938000D0938900C0938800CB
:10037000ECCF8091B00080688093B000C093B30050
:10038000E4CF8091B00080628093B000C093B4004D
:10039000DCCFCF93DF93D62FC72F8F3F910519F076
:1003A00014F08FEF90E081302FEF920714F481E08A
:1003B0009FEF9C0145E069E088E00E9454012D2FE9
:1003C0003C2F2F3F310519F014F02FEF30E0213092
:1003D0008FEF380714F421E03FEF46E063E082E05E
:1003E000DF91CF910C9454011F920F920FB60F9290
:1003F00011242F933F938F939F93AF93BF9380913B
:100400001E0190911F01A0912001B0912101309116
:100410001D0123E0230F2D3758F50196A11DB11DB5
:1004200020931D0180931E0190931F01A093200132
:10043000B09321018091220190912301A091240188
:10044000B09125010196A11DB11D809322019093C9
:100450002301A0932401B0932501BF91AF919F91F7
:100460008F913F912F910F900FBE0F901F90189575
:1004700026E8230F0296A11DB11DD2CFCF93DF93A3
:10048000CDB7DEB72E970FB6F894DEBF0FBECDBF47
:10049000789484B5826084BD84B5816084BD85B55F
:1004A000826085BD85B5816085BD80916E0081606B
:1004B00080936E0010928100809181008260809311
:1004C0008100809181008160809381008091800013
:1004D0008160809380008091B10084608093B1003E
:1004E0008091B00081608093B00080917A00846038
:1004F00080937A0080917A00826080937A00809164
:100500007A00816080937A0080917A00806880937D
:100510007A001092C10085E00E947D0088E00E9470
:100520007D0089E00E947D0086E00E947D0082E0DF
:100530000E947D0083E00E947D008DE00E947D008E
:1005400080E00E947D0081E00E947D0070E060E01C
:1005500090E080E00E94C90113E061E08DE00E941C
:100560009C0068EC70E080E090E00E94220160E076
:100570008DE00E949C0068EC70E080E090E00E94BA
:100580002201115051F760ED77E080E090E00E9489
:10059000220122242394312C0FEF1FEF83E10E94CC
:1005A000E800883A92400CF0F7C02FB7F894809199
:1005B0001E0190911F01A0912001B09121012FBF38
:1005C0004091110150911201609113017091140139
:1005D0006C017D01C41AD50AE60AF70AB701A60123
:1005E0004436510561057105B0F080931101909377
:1005F0001201A0931301B0931401F090100181E057
:10060000F826F09210016F2D8DE00E949C006F2D56
:1006100081E00E949C008AE0E0E0F1E0DE011196BA
:1006200001900D928A95E1F73AE0C32E31E0D32E86
:10063000CE0101965C01F12CE12C412C512C3201B0
:10064000F60181916F010E94E800853F914074F0AE
:10065000F50180819181092E000CAA0BBB0B480E7D
:10066000591E6A1E7B1EFFEFEF1AFF0A22E0A20E40
:10067000B11C8FE0C81681E0D80611F7E114F1042F
:1006800009F49BC09701FF0C440B550BC301B20149
:100690000E94D8052901C90137FF84C010931601B3
:1006A0000093150160E080E00E949C00B201052CDF
:1006B000000C880B990B0E94B6044B015C01209141
:1006C000190130911A0140911B0150911C010E94A7
:1006D0000D046B017C0120E030E84BE355EC0E94F7
:1006E000790487FD89C020E030E84BE355E4C70179
:1006F000B6010E94660518160CF486C0C092190156
:10070000D0921A01E0921B01F0921C018091170116
:1007100090911801B201681B790B072E000C880B11
:10072000990B0E94B6042DEC3CEC4CE45FE30E9474
:100730006B056B877C878D879E872AE939E949E1BC
:100740005EE3C501B4010E946B054B015C012FE61D
:1007500032E143E85AE3C701B6010E946B059B01F1
:10076000AC01C501B4010E940D049B01AC016B8575
:100770007C858D859E850E940D040E947E0450928A
:1007800018014092170126E930E0261B370BCB01F8
:100790008A569F4FB9011FC061E08DE00E949C0006
:1007A00060E036CF892B09F47DCF3092160120927C
:1007B00015012031374209F075CF61E080E00E94D9
:1007C0009C008091150190911601019681F460E5DD
:1007D00070E080EB9FEF0E94C90180E0C82E80E0AE
:1007E000D82ECD2809F4DACE0E940000D7CE60EBD7
:1007F0007FEF80E590E0EFCFC12C20E8D22E2BE3F5
:10080000E22E25ECF22E7ACFC12C90E8D92E9BE374
:10081000E92E95E4F92E72CF5058BB27AA270E94E3
:1008200024040C942C050E941E0538F00E94250516
:1008300020F039F49F3F19F426F40C941B050EF4B4
:10084000E095E7FB0C941505E92F0E943D0558F350
:10085000BA17620773078407950720F079F4A6F5A5
:100860000C945F050EF4E0950B2EBA2FA02D0B0112
:10087000B90190010C01CA01A0011124FF27591BE5
:1008800099F0593F50F4503E68F11A16F040A22FEB
:10089000232F342F4427585FF3CF4695379527955C
:1008A000A795F0405395C9F77EF41F16BA0B620B5B
:1008B000730B840BBAF09150A1F0FF0FBB1F661FA2
:1008C000771F881FC2F70EC0BA0F621F731F841FE5
:1008D00048F4879577956795B795F7959E3F08F00B
:1008E000B0CF9395880F08F09927EE0F97958795CD
:1008F00008950E94F10408F481E008950E9485049F
:100900006894B1110C94600508950E94450588F023
:100910009F5798F0B92F9927B751B0F0E1F0660FC3
:10092000771F881F991F1AF0BA95C9F714C0B13004
:1009300091F00E945F05B1E008950C945F05672F68
:10094000782F8827B85F39F0B93FCCF38695779533
:100950006795B395D9F73EF490958095709561951C
:100960007F4F8F4F9F4F0895E89409C097FB3EF447
:1009700090958095709561957F4F8F4F9F4F9923EC
:10098000A9F0F92F96E9BB279395F695879577956A
:100990006795B795F111F8CFFAF4BB0F11F460FF2A
:1009A0001BC06F5F7F4F8F4F9F4F16C0882311F082
:1009B00096E911C0772321F09EE8872F762F05C096
:1009C000662371F096E8862F70E060E02AF09A9531
:1009D000660F771F881FDAF7880F9695879597F926
:1009E0000895990F0008550FAA0BE0E8FEEF1616C0
:1009F0001706E807F907C0F012161306E407F50713
:100A000098F0621B730B840B950B39F40A2661F086
:100A1000232B242B252B21F408950A2609F4A14029
:100A2000A6958FEF811D811D089597F99F6780E836
:100A300070E060E008959FEF80EC089500240A9430
:100A40001616170618060906089500240A941216A9
:100A50001306140605060895092E0394000C11F4DC
:100A6000882352F0BB0F40F4BF2B11F460FF04C089
:100A70006F5F7F4F8F4F9F4F089557FD9058440FE2
:100A8000551F59F05F3F71F04795880F97FB991FED
:100A900061F09F3F79F087950895121613061406AA
:100AA000551FF2CF4695F1DF08C016161706180637
:100AB000991FF1CF86957105610508940895E89412
:100AC000BB2766277727CB0197F908950E94F10489
:100AD00008F48FEF08950E947E050C942C050E9467
:100AE0001E0538F00E94250520F0952311F00C9486
:100AF00015050C941B0511240C9460050E943D05FE
:100B000070F3959FC1F3950F50E0551F629FF00160
:100B1000729FBB27F00DB11D639FAA27F00DB11D79
:100B2000AA1F649F6627B00DA11D661F829F222702
:100B3000B00DA11D621F739FB00DA11D621F839F89
:100B4000A00D611D221F749F3327A00D611D231F5F
:100B5000849F600D211D822F762F6A2F11249F57AD
:100B600050409AF0F1F088234AF0EE0FFF1FBB1FB0
:100B7000661F771F881F91505040A9F79E3F51056F
:100B800080F00C9415050C9460055F3FE4F3983EEB
:100B9000D4F3869577956795B795F795E7959F5F19
:100BA000C1F7FE2B880F911D9695879597F90895AB
:100BB000052E97FB1EF400940E94EF0557FD07D009
:100BC0000E94F70507FC03D04EF40C94EF055095F6
:100BD0004095309521953F4F4F4F5F4F0895909529
:100BE0008095709561957F4F8F4F9F4F0895A1E23B
:100BF0001A2EAA1BBB1BFD010DC0AA1FBB1FEE1F97
:100C0000FF1FA217B307E407F50720F0A21BB30BE1
:100C1000E40BF50B661F771F881F991F1A9469F75D
:100C200060957095809590959B01AC01BD01CF01B9
:060C30000895F894FFCFC7
:100C360030F818FC0000E803D0070E0F1011120060
:00000001FF
